{
  "contractName": "Auction",
  "abi": [
    {
      "inputs": [
        {
          "internalType": "uint256",
          "name": "_startingBid",
          "type": "uint256"
        }
      ],
      "stateMutability": "nonpayable",
      "type": "constructor"
    },
    {
      "anonymous": false,
      "inputs": [
        {
          "indexed": true,
          "internalType": "address",
          "name": "sender",
          "type": "address"
        },
        {
          "indexed": false,
          "internalType": "uint256",
          "name": "amount",
          "type": "uint256"
        }
      ],
      "name": "Bid",
      "type": "event"
    },
    {
      "anonymous": false,
      "inputs": [
        {
          "indexed": false,
          "internalType": "address",
          "name": "winner",
          "type": "address"
        },
        {
          "indexed": false,
          "internalType": "uint256",
          "name": "amount",
          "type": "uint256"
        }
      ],
      "name": "End",
      "type": "event"
    },
    {
      "anonymous": false,
      "inputs": [],
      "name": "Start",
      "type": "event"
    },
    {
      "anonymous": false,
      "inputs": [
        {
          "indexed": true,
          "internalType": "address",
          "name": "bidder",
          "type": "address"
        },
        {
          "indexed": false,
          "internalType": "uint256",
          "name": "amount",
          "type": "uint256"
        }
      ],
      "name": "Withdraw",
      "type": "event"
    },
    {
      "inputs": [
        {
          "internalType": "address",
          "name": "",
          "type": "address"
        }
      ],
      "name": "bids",
      "outputs": [
        {
          "internalType": "uint256",
          "name": "",
          "type": "uint256"
        }
      ],
      "stateMutability": "view",
      "type": "function",
      "constant": true
    },
    {
      "inputs": [],
      "name": "endAt",
      "outputs": [
        {
          "internalType": "uint256",
          "name": "",
          "type": "uint256"
        }
      ],
      "stateMutability": "view",
      "type": "function",
      "constant": true
    },
    {
      "inputs": [],
      "name": "ended",
      "outputs": [
        {
          "internalType": "bool",
          "name": "",
          "type": "bool"
        }
      ],
      "stateMutability": "view",
      "type": "function",
      "constant": true
    },
    {
      "inputs": [],
      "name": "highestBid",
      "outputs": [
        {
          "internalType": "uint256",
          "name": "",
          "type": "uint256"
        }
      ],
      "stateMutability": "view",
      "type": "function",
      "constant": true
    },
    {
      "inputs": [],
      "name": "highestBidder",
      "outputs": [
        {
          "internalType": "address",
          "name": "",
          "type": "address"
        }
      ],
      "stateMutability": "view",
      "type": "function",
      "constant": true
    },
    {
      "inputs": [
        {
          "internalType": "address",
          "name": "",
          "type": "address"
        }
      ],
      "name": "nftIds",
      "outputs": [
        {
          "internalType": "uint256",
          "name": "",
          "type": "uint256"
        }
      ],
      "stateMutability": "view",
      "type": "function",
      "constant": true
    },
    {
      "inputs": [
        {
          "internalType": "address",
          "name": "",
          "type": "address"
        }
      ],
      "name": "nfts",
      "outputs": [
        {
          "internalType": "address",
          "name": "",
          "type": "address"
        }
      ],
      "stateMutability": "view",
      "type": "function",
      "constant": true
    },
    {
      "inputs": [],
      "name": "seller",
      "outputs": [
        {
          "internalType": "address payable",
          "name": "",
          "type": "address"
        }
      ],
      "stateMutability": "view",
      "type": "function",
      "constant": true
    },
    {
      "inputs": [],
      "name": "started",
      "outputs": [
        {
          "internalType": "bool",
          "name": "",
          "type": "bool"
        }
      ],
      "stateMutability": "view",
      "type": "function",
      "constant": true
    },
    {
      "inputs": [],
      "name": "start",
      "outputs": [],
      "stateMutability": "nonpayable",
      "type": "function"
    },
    {
      "inputs": [],
      "name": "bid",
      "outputs": [],
      "stateMutability": "payable",
      "type": "function",
      "payable": true
    },
    {
      "inputs": [
        {
          "internalType": "address",
          "name": "nft",
          "type": "address"
        },
        {
          "internalType": "uint256",
          "name": "nftId",
          "type": "uint256"
        }
      ],
      "name": "bid",
      "outputs": [],
      "stateMutability": "payable",
      "type": "function",
      "payable": true
    },
    {
      "inputs": [],
      "name": "withdraw",
      "outputs": [],
      "stateMutability": "nonpayable",
      "type": "function"
    },
    {
      "inputs": [],
      "name": "end",
      "outputs": [],
      "stateMutability": "nonpayable",
      "type": "function"
    }
  ],
  "bytecode": "0x60806040523480156200001157600080fd5b50604051620015ad380380620015ad8339818101604052810190620000379190620000c5565b336000806101000a81548173ffffffffffffffffffffffffffffffffffffffff021916908373ffffffffffffffffffffffffffffffffffffffff1602179055508060038190555050620000f7565b600080fd5b6000819050919050565b6200009f816200008a565b8114620000ab57600080fd5b50565b600081519050620000bf8162000094565b92915050565b600060208284031215620000de57620000dd62000085565b5b6000620000ee84828501620000ae565b91505092915050565b6114a680620001076000396000f3fe6080604052600436106100dd5760003560e01c806362ea82db1161007f578063be9a655511610059578063be9a655514610270578063d57bde7914610287578063eae580e8146102b2578063efbe1c1c146102ef576100dd565b806362ea82db146101dd5780637cc3ae8c1461021a57806391f9015714610245576100dd565b80631f2698ab116100bb5780631f2698ab146101425780633ccfd60b1461016d578063599db0f81461018457806359d667a5146101c1576100dd565b806308551a53146100e257806312fa6feb1461010d5780631998aeef14610138575b600080fd5b3480156100ee57600080fd5b506100f7610306565b6040516101049190610ee8565b60405180910390f35b34801561011957600080fd5b5061012261032a565b60405161012f9190610f1e565b60405180910390f35b61014061033d565b005b34801561014e57600080fd5b50610157610646565b6040516101649190610f1e565b60405180910390f35b34801561017957600080fd5b50610182610659565b005b34801561019057600080fd5b506101ab60048036038101906101a69190610f7c565b61077a565b6040516101b89190610fb8565b60405180910390f35b6101db60048036038101906101d69190611009565b6107ad565b005b3480156101e957600080fd5b5061020460048036038101906101ff9190610f7c565b610baf565b6040516102119190611058565b60405180910390f35b34801561022657600080fd5b5061022f610bc7565b60405161023c9190611058565b60405180910390f35b34801561025157600080fd5b5061025a610bcd565b6040516102679190610fb8565b60405180910390f35b34801561027c57600080fd5b50610285610bf1565b005b34801561029357600080fd5b5061029c610d2d565b6040516102a99190611058565b60405180910390f35b3480156102be57600080fd5b506102d960048036038101906102d49190610f7c565b610d33565b6040516102e69190611058565b60405180910390f35b3480156102fb57600080fd5b50610304610d4b565b005b60008054906101000a900473ffffffffffffffffffffffffffffffffffffffff1681565b600260019054906101000a900460ff1681565b600260009054906101000a900460ff1661038c576040517f08c379a0000000000000000000000000000000000000000000000000000000008152600401610383906110d0565b60405180910390fd5b60015442106103d0576040517f08c379a00000000000000000000000000000000000000000000000000000000081526004016103c79061113c565b60405180910390fd5b6003543411610414576040517f08c379a000000000000000000000000000000000000000000000000000000000815260040161040b906111a8565b60405180910390fd5b600073ffffffffffffffffffffffffffffffffffffffff16600560003373ffffffffffffffffffffffffffffffffffffffff1673ffffffffffffffffffffffffffffffffffffffff16815260200190815260200160002060009054906101000a900473ffffffffffffffffffffffffffffffffffffffff1673ffffffffffffffffffffffffffffffffffffffff16036104e2576040517f08c379a00000000000000000000000000000000000000000000000000000000081526004016104d990611214565b60405180910390fd5b600073ffffffffffffffffffffffffffffffffffffffff1660028054906101000a900473ffffffffffffffffffffffffffffffffffffffff1673ffffffffffffffffffffffffffffffffffffffff16146105af576003546004600060028054906101000a900473ffffffffffffffffffffffffffffffffffffffff1673ffffffffffffffffffffffffffffffffffffffff1673ffffffffffffffffffffffffffffffffffffffff16815260200190815260200160002060008282546105a79190611263565b925050819055505b336002806101000a81548173ffffffffffffffffffffffffffffffffffffffff021916908373ffffffffffffffffffffffffffffffffffffffff160217905550346003819055503373ffffffffffffffffffffffffffffffffffffffff167fe684a55f31b79eca403df938249029212a5925ec6be8012e099b45bc1019e5d23460405161063c9190611058565b60405180910390a2565b600260009054906101000a900460ff1681565b6000600460003373ffffffffffffffffffffffffffffffffffffffff1673ffffffffffffffffffffffffffffffffffffffff1681526020019081526020016000205490506000600460003373ffffffffffffffffffffffffffffffffffffffff1673ffffffffffffffffffffffffffffffffffffffff168152602001908152602001600020819055503373ffffffffffffffffffffffffffffffffffffffff166108fc829081150290604051600060405180830381858888f19350505050158015610728573d6000803e3d6000fd5b503373ffffffffffffffffffffffffffffffffffffffff167f884edad9ce6fa2440d8a54cc123490eb96d2768479d49ff9c7366125a94243648260405161076f9190611058565b60405180910390a250565b60056020528060005260406000206000915054906101000a900473ffffffffffffffffffffffffffffffffffffffff1681565b600260009054906101000a900460ff166107fc576040517f08c379a00000000000000000000000000000000000000000000000000000000081526004016107f3906110d0565b60405180910390fd5b6001544210610840576040517f08c379a00000000000000000000000000000000000000000000000000000000081526004016108379061113c565b60405180910390fd5b6003543411610884576040517f08c379a000000000000000000000000000000000000000000000000000000000815260040161087b906111a8565b60405180910390fd5b600073ffffffffffffffffffffffffffffffffffffffff1660028054906101000a900473ffffffffffffffffffffffffffffffffffffffff1673ffffffffffffffffffffffffffffffffffffffff1614610951576003546004600060028054906101000a900473ffffffffffffffffffffffffffffffffffffffff1673ffffffffffffffffffffffffffffffffffffffff1673ffffffffffffffffffffffffffffffffffffffff16815260200190815260200160002060008282546109499190611263565b925050819055505b600073ffffffffffffffffffffffffffffffffffffffff16600560003373ffffffffffffffffffffffffffffffffffffffff1673ffffffffffffffffffffffffffffffffffffffff16815260200190815260200160002060009054906101000a900473ffffffffffffffffffffffffffffffffffffffff1673ffffffffffffffffffffffffffffffffffffffff1603610b1657600073ffffffffffffffffffffffffffffffffffffffff168273ffffffffffffffffffffffffffffffffffffffff1603610a53576040517f08c379a0000000000000000000000000000000000000000000000000000000008152600401610a4a906112e3565b60405180910390fd5b81600560003373ffffffffffffffffffffffffffffffffffffffff1673ffffffffffffffffffffffffffffffffffffffff16815260200190815260200160002060006101000a81548173ffffffffffffffffffffffffffffffffffffffff021916908373ffffffffffffffffffffffffffffffffffffffff16021790555080600660003373ffffffffffffffffffffffffffffffffffffffff1673ffffffffffffffffffffffffffffffffffffffff168152602001908152602001600020819055505b336002806101000a81548173ffffffffffffffffffffffffffffffffffffffff021916908373ffffffffffffffffffffffffffffffffffffffff160217905550346003819055503373ffffffffffffffffffffffffffffffffffffffff167fe684a55f31b79eca403df938249029212a5925ec6be8012e099b45bc1019e5d234604051610ba39190611058565b60405180910390a25050565b60046020528060005260406000206000915090505481565b60015481565b60028054906101000a900473ffffffffffffffffffffffffffffffffffffffff1681565b600260009054906101000a900460ff1615610c41576040517f08c379a0000000000000000000000000000000000000000000000000000000008152600401610c389061134f565b60405180910390fd5b60008054906101000a900473ffffffffffffffffffffffffffffffffffffffff1673ffffffffffffffffffffffffffffffffffffffff163373ffffffffffffffffffffffffffffffffffffffff1614610ccf576040517f08c379a0000000000000000000000000000000000000000000000000000000008152600401610cc6906113bb565b60405180910390fd5b6001600260006101000a81548160ff0219169083151502179055506201518042610cf99190611263565b6001819055507f1b55ba3aa851a46be3b365aee5b5c140edd620d578922f3e8466d2cbd96f954b60405160405180910390a1565b60035481565b60066020528060005260406000206000915090505481565b600260009054906101000a900460ff16610d9a576040517f08c379a0000000000000000000000000000000000000000000000000000000008152600401610d91906110d0565b60405180910390fd5b600154421015610ddf576040517f08c379a0000000000000000000000000000000000000000000000000000000008152600401610dd690611427565b60405180910390fd5b600260019054906101000a900460ff1615610e2f576040517f08c379a0000000000000000000000000000000000000000000000000000000008152600401610e269061113c565b60405180910390fd5b6001600260016101000a81548160ff0219169083151502179055507f7d7570b046e5ead3a4f3fbc9fa2445113625a1e79823776146316bafed6b8cc560028054906101000a900473ffffffffffffffffffffffffffffffffffffffff16600354604051610e9d929190611447565b60405180910390a1565b600073ffffffffffffffffffffffffffffffffffffffff82169050919050565b6000610ed282610ea7565b9050919050565b610ee281610ec7565b82525050565b6000602082019050610efd6000830184610ed9565b92915050565b60008115159050919050565b610f1881610f03565b82525050565b6000602082019050610f336000830184610f0f565b92915050565b600080fd5b6000610f4982610ea7565b9050919050565b610f5981610f3e565b8114610f6457600080fd5b50565b600081359050610f7681610f50565b92915050565b600060208284031215610f9257610f91610f39565b5b6000610fa084828501610f67565b91505092915050565b610fb281610f3e565b82525050565b6000602082019050610fcd6000830184610fa9565b92915050565b6000819050919050565b610fe681610fd3565b8114610ff157600080fd5b50565b60008135905061100381610fdd565b92915050565b600080604083850312156110205761101f610f39565b5b600061102e85828601610f67565b925050602061103f85828601610ff4565b9150509250929050565b61105281610fd3565b82525050565b600060208201905061106d6000830184611049565b92915050565b600082825260208201905092915050565b7f6e6f742073746172746564000000000000000000000000000000000000000000600082015250565b60006110ba600b83611073565b91506110c582611084565b602082019050919050565b600060208201905081810360008301526110e9816110ad565b9050919050565b7f656e646564000000000000000000000000000000000000000000000000000000600082015250565b6000611126600583611073565b9150611131826110f0565b602082019050919050565b6000602082019050818103600083015261115581611119565b9050919050565b7f76616c7565203c20686967686573740000000000000000000000000000000000600082015250565b6000611192600f83611073565b915061119d8261115c565b602082019050919050565b600060208201905081810360008301526111c181611185565b9050919050565b7f696e636c756465206e667420746f20646973706c617900000000000000000000600082015250565b60006111fe601683611073565b9150611209826111c8565b602082019050919050565b6000602082019050818103600083015261122d816111f1565b9050919050565b7f4e487b7100000000000000000000000000000000000000000000000000000000600052601160045260246000fd5b600061126e82610fd3565b915061127983610fd3565b925082820190508082111561129157611290611234565b5b92915050565b7f696e76616c6964206e6674206164647265737300000000000000000000000000600082015250565b60006112cd601383611073565b91506112d882611297565b602082019050919050565b600060208201905081810360008301526112fc816112c0565b9050919050565b7f7374617274656400000000000000000000000000000000000000000000000000600082015250565b6000611339600783611073565b915061134482611303565b602082019050919050565b600060208201905081810360008301526113688161132c565b9050919050565b7f6e6f742073656c6c657200000000000000000000000000000000000000000000600082015250565b60006113a5600a83611073565b91506113b08261136f565b602082019050919050565b600060208201905081810360008301526113d481611398565b9050919050565b7f656e642074696d6520696e206675747572650000000000000000000000000000600082015250565b6000611411601283611073565b915061141c826113db565b602082019050919050565b6000602082019050818103600083015261144081611404565b9050919050565b600060408201905061145c6000830185610fa9565b6114696020830184611049565b939250505056fea2646970667358221220e1fe8680d4294f8e35591338fc562803cb999dcee46c73c4247477c1738d1ab264736f6c63430008110033",
  "immutableReferences": {},
  "source": "// SPDX-License-Identifier: UNLICENSED\npragma solidity ^0.8.13;\n\ncontract Auction {\n    event Start();\n    event Bid(address indexed sender, uint amount);\n    event Withdraw(address indexed bidder, uint amount);\n    event End(address winner, uint amount);\n\n    address payable public seller;\n    uint public endAt;\n    bool public started;\n    bool public ended;\n\n    address public highestBidder;\n    uint public highestBid; // Wei\n    mapping(address => uint) public bids;\n    mapping(address => address) public nfts;\n    mapping(address => uint256) public nftIds;\n\n    constructor(\n        uint _startingBid\n    ) {\n        seller = payable(msg.sender);\n        highestBid = _startingBid;\n    }\n\n    function start() external {\n        require(!started, \"started\");\n        require(msg.sender == seller, \"not seller\");\n\n        started = true;\n        endAt = block.timestamp + 1 days;\n\n        emit Start();\n    }\n\n    function bid() external payable {\n        require(started, \"not started\");\n        require(block.timestamp < endAt, \"ended\");\n        require(msg.value > highestBid, \"value < highest\");\n        require(nfts[msg.sender] != address(0), \"include nft to display\");\n\n        if (highestBidder != address(0)) {\n            bids[highestBidder] += highestBid;\n        }\n\n        highestBidder = msg.sender;\n        highestBid = msg.value;\n\n        emit Bid(msg.sender, msg.value);\n    }\n\n    // Overload if the user submits an NFT\n    function bid(address nft, uint256 nftId) external payable {\n        require(started, \"not started\");\n        require(block.timestamp < endAt, \"ended\");\n        require(msg.value > highestBid, \"value < highest\");\n\n        if (highestBidder != address(0)) {\n            bids[highestBidder] += highestBid;\n        }\n\n        if (nfts[msg.sender] == address(0)) {\n            require(nft != address(0), \"invalid nft address\");\n            nfts[msg.sender] = nft;\n            nftIds[msg.sender] = nftId;\n        }\n\n        highestBidder = msg.sender;\n        highestBid = msg.value;\n\n        emit Bid(msg.sender, msg.value);\n    }\n\n    function withdraw() external {\n        uint bal = bids[msg.sender];\n        bids[msg.sender] = 0;\n        payable(msg.sender).transfer(bal);\n\n        emit Withdraw(msg.sender, bal);\n    }\n\n    function end() external {\n        require(started, \"not started\");\n        require(block.timestamp >= endAt, \"end time in future\");\n        require(!ended, \"ended\");\n\n        ended = true;\n\n        emit End(highestBidder, highestBid);\n    }\n}",
  "sourcePath": "/Users/joshquintal/dev/off-site-workshop-22/contracts/Auction.sol",
  "compiler": {
    "name": "solc",
    "version": "0.8.17+commit.8df45f5f.Emscripten.clang"
  },
  "schemaVersion": "3.4.10",
  "updatedAt": "2022-11-10T00:29:37.983Z",
  "networkType": "ethereum",
  "devdoc": {
    "kind": "dev",
    "methods": {},
    "version": 1
  },
  "userdoc": {
    "kind": "user",
    "methods": {},
    "version": 1
  }
}